:020000040000FA
:100C00001AEF0BF0D9CFE5FFE1CFD9FF00C0E5FF28
:100C100001C0E5FF02C0E5FF03C0E5FF04C0E5FF3A
:100C2000020EDBCF00F0030EDBCF01F0000E00243C
:100C3000026E036A170E0322046A000E042202C029
:100C4000F6FF03C0F7FF04C0F8FF0900F5CF02F07C
:100C5000050E025CD8B0F8D0FA6AFB6A0234FA36A4
:100C6000E834FA36FC0B760FE56E0C0EFA22000E15
:100C7000FB22E450F96E45EF06F072EF06F09FEFAD
:100C800006F0CCEF06F0F9EF06F0015015E0E20EA9
:100C90000024026E036A160E0322046A000E042268
:100CA00002C0F6FF03C0F7FF04C0F8FF0900F5CF4C
:100CB00002F002509212C8D0E20E0024026E036AC3
:100CC000160E0322046A000E042202C0F6FF03C0BF
:100CD000F7FF04C0F8FF0900F5CF02F00250FF084B
:100CE0009216B2D0015015E0E20E0024026E036AA3
:100CF000160E0322046A000E042202C0F6FF03C08F
:100D0000F7FF04C0F8FF0900F5CF02F0025093127C
:100D10009BD0E20E0024026E036A160E0322046AC0
:100D2000000E042202C0F6FF03C0F7FF04C0F8FF64
:100D30000900F5CF02F00250FF08931685D001504C
:100D400015E0E20E0024026E036A160E0322046A06
:100D5000000E042202C0F6FF03C0F7FF04C0F8FF34
:100D60000900F5CF02F0025094126ED0E20E00247A
:100D7000026E036A160E0322046A000E042202C0E9
:100D8000F6FF03C0F7FF04C0F8FF0900F5CF02F03B
:100D90000250FF08941658D0015015E0E20E0024CE
:100DA000026E036A160E0322046A000E042202C0B9
:100DB000F6FF03C0F7FF04C0F8FF0900F5CF02F00B
:100DC0000250951241D0E20E0024026E036A160E04
:100DD0000322046A000E042202C0F6FF03C0F7FFDC
:100DE00004C0F8FF0900F5CF02F00250FF08951685
:100DF0002BD0015015E0E20E0024016E026A160E9F
:100E00000222036A000E032201C0F6FF02C0F7FFB0
:100E100003C0F8FF0900F5CF01F00150961214D07D
:100E2000016A026AE20E0026160E0122000E02225C
:100E300000C0F6FF01C0F7FF02C0F8FF0900F5CFC0
:100E400000F00050FF089616E4CF04F0E4CF03F062
:100E5000E4CF02F0E4CF01F0E4CF00F0E4CFD9FF1B
:100E60001200D9CFE5FFE1CFD9FF00C0E5FF01C0F7
:100E7000E5FF02C0E5FF03C0E5FF04C0E5FF020E89
:100E8000DBCF00F0030EDBCF01F0000E0024026E7A
:100E9000036A170E0322046A000E042202C0F6FF42
:100EA00003C0F7FF04C0F8FF0900F5CF02F0050EFC
:100EB000025CD8B0F8D0FA6AFB6A0234FA36E83439
:100EC000FA36FC0BD40FE56E0E0EFA22000EFB2252
:100ED000E450F96E74EF07F0A1EF07F0CEEF07F0E2
:100EE000FBEF07F028EF08F0015015E0E20E0024B8
:100EF000026E036A160E0322046A000E042202C068
:100F0000F6FF03C0F7FF04C0F8FF0900F5CF02F0B9
:100F100002508912C8D0E20E0024026E036A160E37
:100F20000322046A000E042202C0F6FF03C0F7FF8A
:100F300004C0F8FF0900F5CF02F00250FF0889163F
:100F4000B2D0015015E0E20E0024026E036A160EC4
:100F50000322046A000E042202C0F6FF03C0F7FF5A
:100F600004C0F8FF0900F5CF02F002508A129BD0AE
:100F7000E20E0024026E036A160E0322046A000EBB
:100F8000042202C0F6FF03C0F7FF04C0F8FF090007
:100F9000F5CF02F00250FF088A1685D0015015E007
:100FA000E20E0024026E036A160E0322046A000E8B
:100FB000042202C0F6FF03C0F7FF04C0F8FF0900D7
:100FC000F5CF02F002508B126ED0E20E0024026EBA
:100FD000036A160E0322046A000E042202C0F6FF02
:100FE00003C0F7FF04C0F8FF0900F5CF02F002507C
:100FF000FF088B1658D0015015E0E20E0024026E57
:10100000036A160E0322046A000E042202C0F6FFD1
:1010100003C0F7FF04C0F8FF0900F5CF02F002504B
:101020008C1241D0E20E0024026E036A160E0322D7
:10103000046A000E042202C0F6FF03C0F7FF04C0DA
:10104000F8FF0900F5CF02F00250FF088C162BD0F4
:10105000015015E0E20E0024016E026A160E022213
:10106000036A000E032201C0F6FF02C0F7FF03C0AF
:10107000F8FF0900F5CF01F001508D1214D0016A7C
:10108000026AE20E0026160E0122000E022200C0A5
:10109000F6FF01C0F7FF02C0F8FF0900F5CF00F02E
:1010A0000050FF088D16E4CF04F0E4CF03F0E4CF46
:1010B00002F0E4CF01F0E4CF00F0E4CFD9FF12005A
:1010C000000EE56AE56A02EC06F0E652E652E56AD1
:1010D000010EE56E02EC06F0E652E652E56A020EFB
:1010E000E56E02EC06F0E652E652E56A030EE56EA6
:1010F00002EC06F0E652E652E56A040EE56E02ECFA
:1011000006F0E652E652E56A050EE56E02EC06F0E0
:10111000E652E652E56A060EE56E02EC06F0E6528D
:10112000E652E56A070EE56E02EC06F0E652E6527C
:10113000E56A080EE56E02EC06F0E652E652E56A54
:10114000090EE56E02EC06F0E652E652E56A0A0E7A
:10115000E56E02EC06F0E652E652E56A0B0EE56E2D
:1011600002EC06F0E652E652E56A0C0EE56E02EC81
:1011700006F0E652E652E56A0D0EE56E02EC06F068
:10118000E652E652E56A0E0EE56E02EC06F0E65215
:10119000E652E56A0F0EE56E02EC06F0E652E65204
:1011A000E56A100EE56E02EC06F0E652E652E56ADC
:1011B000110EE56E02EC06F0E652E652E56A120EFA
:1011C000E56E02EC06F0E652E652E56A130EE56EB5
:1011D00002EC06F0E652E652E56A140EE56E02EC09
:1011E00006F0E652E652E56A150EE56E02EC06F0F0
:1011F000E652E652E56A160EE56E02EC06F0E6529D
:10120000E652E56A170EE56E02EC06F0E652E6528B
:10121000E56A180EE56E02EC06F0E652E652E56A63
:10122000190EE56E02EC06F0E652E652E56A1A0E79
:10123000E56E02EC06F0E652E652E56A1B0EE56E3C
:1012400002EC06F0E652E652E56A1C0EE56E02EC90
:1012500006F0E652E652E56A1D0EE56E02EC06F077
:10126000E652E6521200D9CFE5FFE1CFD9FF00C028
:10127000E5FF01C0E5FF02C0E5FF03C0E5FF020E88
:10128000DBCF00F0000E0024016E026A170E02226E
:10129000036A000E032201C0F6FF02C0F7FF03C07D
:1012A000F8FF0900F5CF01F0050E015CD8B09AD027
:1012B000FA6AFB6A0134FA36E834FA36FC0BCE0FD0
:1012C000E56E120EFA22000EFB22E450F96E71EF69
:1012D00009F08BEF09F0A5EF09F0BFEF09F0D9EFA6
:1012E00009F0E20E0024016E026A160E0222036A61
:1012F000000E032201C0F6FF02C0F7FF03C0F8FF93
:101300000900F5CF01F080500116015002E0010EF6
:101310006AD0E86A68D0E20E0024016E026A160EF6
:101320000222036A000E032201C0F6FF02C0F7FF8B
:1013300003C0F8FF0900F5CF01F0815001160150FC
:1013400002E0010E50D0E86A4ED0E20E0024016E99
:10135000026A160E0222036A000E032201C0F6FF83
:1013600002C0F7FF03C0F8FF0900F5CF01F082507B
:101370000116015002E0010E36D0E86A34D0E20EC8
:101380000024016E026A160E0222036A000E032276
:1013900001C0F6FF02C0F7FF03C0F8FF0900F5CF58
:1013A00001F083500116015002E0010E1CD0E86AE2
:1013B0001AD0016A026AE20E0026160E0122000E01
:1013C000022200C0F6FF01C0F7FF02C0F8FF0900CB
:1013D000F5CF00F084500016005002E0010E03D05B
:1013E000E86A01D0E86AE4CF03F0E4CF02F0E4CF8A
:1013F00001F0E4CF00F0E4CFD9FF1200000EE56A5F
:1014000001EC0CF0E652010EE56E01EC0CF0E65238
:10141000020EE56E01EC0CF0E652030EE56E01ECF7
:101420000CF0E652040EE56E01EC0CF0E652050EEF
:10143000E56E01EC0CF0E652060EE56E01EC0CF0E8
:10144000E652070EE56E01EC0CF0E652080EE56E72
:1014500001EC0CF0E652090EE56E01EC0CF0E652E0
:101460000A0EE56E01EC0CF0E6520B0EE56E01EC97
:101470000CF0E6520E0EE56E01EC0CF0E6520F0E8B
:10148000E56E01EC0CF0E652100EE56E01EC0CF08E
:10149000E652110EE56E01EC0CF0E652120EE56E0E
:1014A00001EC0CF0E652130EE56E01EC0CF0E65286
:1014B000140EE56E01EC0CF0E652150EE56E01EC33
:1014C0000CF0E652160EE56E01EC0CF0E652170E2B
:1014D000E56E01EC0CF0E652180EE56E01EC0CF036
:1014E000E652190EE56E01EC0CF0E6521A0EE56EAE
:1014F00001EC0CF0E6521B0EE56E01EC0CF0E6522E
:101500001C0EE56E01EC0CF0E6521D0EE56E01ECD2
:101510000CF0E6520401016B026B04010251E56E0E
:101520000151E56E0B0EE56EB7EC0AF0030EE126F5
:1015300004010251E56E0151E56E0C0EE56EB7EC4B
:101540000AF0030EE126E56A010EE56EAEEC0BF043
:10155000E652E6520401013F01D0022B0401025180
:10156000800F7C0F02E1000E015DD7E31200D9CF9E
:10157000E5FFE1CFD9FF00C0E5FF01C0E5FF02C0F4
:10158000E5FF03C0E5FF04C0E5FF020EDBCF00F07E
:10159000030EDBCF01F0040EDBCF02F000500B0A8C
:1015A00020E000500C0A38E10C0EBD6ED8900230DD
:1015B000036E0130006ED890033200320050BE6ED0
:1015C000006A030E0214036EF00E0016003A033A8E
:1015D00003140026BDCF04F0045000120050BD6E6D
:1015E0001BD00C0EBA6ED8900230036E0130006E24
:1015F000D890033200320050BB6E016A030E02160F
:10160000F00E0116013A023A02140126BDCF00F095
:10161000005001120150BD6E9E92E4CF04F0E4CF61
:1016200003F0E4CF02F0E4CF01F0E4CF00F0E4CF28
:10163000D9FF120017EEFFF027EEFFF0F86AA68E32
:10164000A69CBF0EE96E0E0EEA6E0068ED6A0050B1
:10165000FDE1A20EF66E180EF76E000EF86E090090
:10166000F5CF05F00900F5CF06F034D00900F5CF2D
:1016700000F00900F5CF01F00900F5CF02F00900F4
:101680000900F5CFE9FF0900F5CFEAFF09000900DD
:101690000900F5CF03F00900F5CF04F009000900B7
:1016A000F6CF07F0F7CF08F0F8CF09F000C0F6FF4B
:1016B00001C0F7FF02C0F8FF03D00900F5CFEEFF2D
:1016C0000306FBE20406F9E207C0F6FF08C0F7FFD5
:1016D00009C0F8FF0506CAE20606C8E237EC0CF0BE
:1016E000FFD701020408102040804080010204015D
:1016F00002040820010204010204081020408010A6
:1017000001010101010101010202020202000000C7
:101710000000040404030303030303030300E806B7
:10172000E56E630EA2EC0BF0E4500BE000D0E56E2A
:10173000630EA2EC0BF000D000D00000E450E82EC5
:10174000F6D71200E8060000E85007E000D000D00D
:1017500000D000D00000E82EFAD71200D9CFE5FF64
:10176000E1CFD9FF00C0E5FF01C0E5FF02C0E5FF02
:1017700003C0E5FF020EDBCF00F0030EDBCF01F06C
:10178000026A036A0150035C02E10050025C06E257
:101790000C0E8FEC0BF0024A032AF4D7E4CF03F0CF
:1017A000E4CF02F0E4CF01F0E4CF00F0E4CFD9FFC2
:1017B0001200D9CFE5FFE1CFD9FF00C0E5FF01C09E
:1017C000E5FF02C0E5FF03C0E5FF020EDBCF00F03E
:1017D000030EDBCF01F0026A036A0150035C02E1F1
:1017E0000050025C03E2024A032AF7D7E4CF03F079
:1017F000E4CF02F0E4CF01F0E4CF00F0E4CFD9FF72
:101800001200D9CFE5FFE1CFD9FF00C0E5FF01C04D
:10181000E5FF020EDBCF00F00050E56E33EC09F07F
:10182000016EE65201700150E56E0050E56E31EC3C
:1018300007F0E652E652E4CF01F0E4CF00F0E4CF47
:10184000D9FF1200896A8A6A400E8B6E8C6A8D6A93
:10185000926A936A949094929494949C949E956ABC
:10186000966A806A816A826A836A846A1200D0B248
:1018700002D0930ED012F29EF29C22EC0CF058ECA7
:101880000CF05DEC0CF060EC08F0FEEC09F0FDD71C
:1018900012002F0E9212070E9612C16EBD0EC06E70
:1018A00012000100C2180000000400000300000044
:1018B0000F0EC16E070EB46E1200CB68040ECA6E16
:0618C00012000000000010
:00000001FF
